:100000000C9400040C9428040C9428040C949B0D6C
:100010000C949B0D0C949B0D0C941F180C942804AD
:100020000C9428040C9428040C9428040C942804A0
:100030000C9428040C9428040C9428040C94280490
:100040000C94FB200C9428040C9428040C94280491
:100050000C9428040C9428040C9428040C94280470
:100060000C94431B0C942804E308EA08EE080409E6
:100070000D09120935093B09780A900A2705AA0AD1
:100080002F0B480B900A270527052705270527056D
:10009000610B270527057E0BA70B27052705BF0B3F
:1000A000D20B27052705270527052705270527053F
:1000B00027052705F70B100C320C3F0C27052705E9
:1000C0002705270527052705600C790CA90C5B205F
:1000D000602065206A206F20742079207E204C00EB
:1000E00052002000D091D090D0A0D09CD095D09D2F
:1000F00000D094D09ED09BD098D09200D09DD0902C
:10010000D09BD098D0A2D0AC2020D0A5D09ED0A794
:10011000D0A300D09AD0A0D0A3D0A7D0A32020D025
:1001200092D095D0A0D0A7D0A3004D00D092D0A15E
:10013000D09520D097D09020D09ED094D09DD09EA6
:10014000D093D09E00D09ED094D098D09D20D097B0
:10015000D09020D092D0A1D095D0A500D09CD0A393
:10016000D0A8D09AD095D0A2D095D0A0D0AB00D0B6
:100170009ED0A2D091D09ED099210053484F5700D5
:10018000D0A2D0A03A00D093D0A03A003E003C00CC
:1001900020206D6C00D0BCD18100D09DD090D09B30
:1001A000D098D0922035306D6C20D097D0903A0006
:1001B000D09CD098D09D2E002E3030002E333000B1
:1001C000D097D090D0A1D09DD0A3D0A2D0AC20D039
:1001D000A7D095D0A0D095D097005600D09DD090B4
:1001E000D09FD0A0D0AFD096D095D09DD098D095AC
:1001F00000D092D0ABD09AD09B2E00D092D09AD083
:100200009B2E20003E3E3E3E3E3E3E3E3E3E3E3E1D
:1002100000D09F20D0A020D09E20D09C20D0AB200A
:10022000D09220D09A20D09000D0AFD0A0D09AD039
:100230009ED0A1D0A2D0AC00D093D0A0D09ED09C14
:10024000D09AD09ED0A1D0A2D0AC00D0A1D09AD0CC
:100250009ED0A0D09ED0A1D0A2D0AC00D09AD090F9
:10026000D09BD098D091D0A0D09ED092D09AD09050
:1002700000D09DD090D0A1D0A2D0A0D09ED099D0B7
:100280009AD0982020D0A1D095D0A0D092D09E0016
:10029000504C415900D09DD095D0A200D0A2D0A002
:1002A000D095D09AD09ED0923A00D094D098D0A039
:1002B0003A00D09FD090D09FD09AD09020D0A1204B
:1002C000D0A2D0A0D095D09AD090D09CD09800D079
:1002D0009FD095D0A0D095D09CD095D0A8D090D0CC
:1002E000A2D0AC20D0A2D0A0D095D09AD09800D0E7
:1002F00093D0A02ED09ED097D092D0A3D0A7D09A42
:10030000D098002DD0AF20D0A0D0AED09CD09AD025
:10031000903A2020206D6C20004200342D202020B7
:10032000352D202020362D00312D202020322D206B
:100330002020332D00D0BFD0BED0B72E3A002DD113
:100340008F20D180D18ED0BCD0BAD0B000D09ED07A
:100350009A202020202000D09AD0982020202020F1
:1003600000D09AD0A3202020202000202020D0924E
:10037000202020D0A0D0AED09C00D09FD09E2020A6
:1003800020206D6C0048D090D09BD098D0A2D09EF9
:1003900000D09220202DD0AE20D0A0D0AED09CD0C6
:1003A0009AD0A32020206D6C00D09DD090D09BD0FF
:1003B00098D092D090D0AE20202020206D6C00D01C
:1003C00094D09E20D09AD0A0D090D095D09200D03A
:1003D0009FD09E2020D09FD09ED09BD09DD09ED0DD
:1003E0009900422043414DD0ABD099205041D09745
:1003F00000D09F4F20D0A7D0A354D0AC202D20D028
:10040000A7D0A354D0AC0048D098204F20D0A74507
:100410004D0048D090D09BD09854D0AC00D09AD00A
:1004200090D09BD098D091D0A02ED09FD09ED09C21
:10043000D09FD0AB00D0A2D090D099D09CD095D0F6
:10044000A020D0A1D09DD09000D09DD090D09FD0A2
:10045000A0D0AFD096D095D09DD098D09520D090F8
:10046000D09AD09100D091D090D0A0D09CD095D0EF
:100470009D2DD094D09ED09BD098D09200D0AFD05C
:10048000A0D09AD09ED0A1D0A2D0AC20204C454480
:1004900000D09CD095D09DD0AE2020D0A1D095D0BA
:1004A000A0D092D09E00D0A2D09ED0A1D0A2D0AB9E
:1004B00000D09FD0A0D09ED09CD0ABD092D09AD06C
:1004C0009000D09DD090D0A1D0A2D0A0D09ED099A5
:1004D000D09AD09800D09FD09BD095D095D0A00036
:1004E000D09CD0A3D09BD0ACD0A2D098D0A0D0909C
:1004F000D097D09BD098D09200D090D092D0A2D05C
:100500009E00D09DD090D09BD098D092D090D0A279
:10051000D09ED0A02B00D0A1D09DD098D09CD098B8
:10052000D0A2D09520D0A0D0AED09CD09AD0982187
:1005300000D09DD095D0A220D0A0D0AED09CD09E8F
:10054000D09A21002020200021212120D0A2D09E5D
:10055000D0A1D0A22021212100D0A2D0A0D095D01E
:100560009A202D202000D09DD090D0902DD0A7D0C3
:1005700090D0902DD09BD098D098D098D098210032
:10058000D09DD0A32C0000000F110F050900000022
:1005900012151D15120000000E1107110E000000AB
:1005A00010101E111E00000011111D131D0000006F
:1005B00018080E090E000000151515151F01000082
:1005C000151515151F00000011110F010100000085
:1005D000121212121F010000040E150E040000007A
:1005E0001F040404040000001F1111111100000079
:1005F00011111F1111000000111B15111100000035
:1006000007090909110000001214181412000A0445
:100610001113151911000000111315191100000014
:100620000E1106110E00000015150E1515000A001A
:100630000E111F100F000000060A0A0A1F11000009
:100640001E101010100000001E111E111E00030CC1
:10065000101E11110E000F11110F050911001215B6
:10066000151D151512000E11010701110E001010B5
:10067000101E11111E001111111D13131D00180859
:10068000080E09090E001111111515151F01111180
:10069000111515151F001111110F01010100121282
:1006A000121212121F01040E1515150E040011115D
:1006B000110F01110E001F11111111111100070965
:1006C000090909091100151111131519110011114A
:1006D0001113151911000E11010601110E00151547
:1006E000150E15151500060A0A0A0A0A1F111F1011
:1006F0001010101010001F10101E11111E00800588
:100700006605590548054405310516050205F90435
:10071000E004D504C204B104A60491047D04650478
:10072000490435041D0412040704F103E203CF0356
:10073000BF03A903910385037A036B036103570386
:100740004D033E03350328031B0319030303EF0284
:10075000CF02B202AA029C029502900271025C02D0
:100760004B023802290211020402FB01F101DC01F3
:10077000DA01C001BC01B801B0019A0195019001F4
:100780008E018C01860180017B016F015C014501B6
:100790002C012A011301FC00F100E400E200E0005A
:1007A000DE0000000000240027002A0000000008EE
:1007B0000002010000030407000000000000000028
:1007C0000000000023002600290000000000250092
:1007D00028002B000404040404040404020202029E
:1007E00002020303030303030102040810204080F4
:1007F000010204081020010204081020092FA72E6E
:1008000011241FBECFEFD8E0DEBFCDBF11E0A0E0C6
:10081000B1E0EAE5F7E602C005900D92A637B10710
:10082000D9F725E0A6E7B1E001C01D92AF30B207CD
:10083000E1F713E0CFEFD3E004C02197FE010E945F
:100840006A31CE3FD107C9F70E944E210C94A033E4
:100850000C940000EF92FF920F931F93CF93DF93BE
:1008600080911302882329F080911202882309F4D1
:10087000B7C0809183040E94711CC82F80918404AA
:100880000E94711C880F991F8C2B80938A04909171
:100890009204992381F0833071F490918B0492300B
:1008A00011F491E003C0913019F492E090938C041C
:1008B0001092920405C0811103C091E090939204BC
:1008C00080938B04809185040E94711C21E0009725
:1008D00009F420E020938704892B29F08091880473
:1008E0008823A1F11EC08091880481112FC00E942D
:1008F000EF2000918E0410918F042091900430918C
:100900009104DC01CB01801B910BA20BB30BC397AD
:10091000A105B10508F0BBC5809187048823B1F01B
:10092000DDCF0E94EF2000918E0410918F04209162
:10093000900430919104DC01CB01801B910BA20B40
:10094000B30BC397A105B10508F0B6C58091890422
:10095000882309F445C080918804882329F0809178
:1009600088048823E9F126C00E94EF2000918E04BC
:1009700010918F042091900430919104DC01CB01FF
:10098000801B910BA20BB30B893C9105A105B1050E
:1009900060F01092890480918D04823008F099C52E
:1009A00085E080938C0410928D04809189048111DC
:1009B000D6CF16C00E94EF2000918E0410918F04B4
:1009C0002091900430919104DC01CB01801B910BAC
:1009D000A20BB30B893E9340A105B10508F07BC57E
:1009E0008091A601811141C28091A70181113DC270
:1009F00080911102811139C280919A01811135C211
:100A000080918C048150843020F58BEE93E00E941D
:100A10000E1780918C04823039F410928C048091EE
:100A2000A10281508093A10280918C04813039F41D
:100A300010928C048091A1028F5F8093A102E091BB
:100A400014028E2F90E08B32910508F44CC5109261
:100A5000A10280918C04873009F077C010928C0439
:100A600080911402833009F044C080917902909102
:100A70007A020196F1F180910D01833091F038F402
:100A8000813061F08230A1F461E08AE00FC08430EF
:100A900059F0853069F461E08FE008C060E086E0DD
:100AA00005C060E088E002C060E08EE00E94A01E09
:100AB0008FE40E94D1119091800280910D019111DB
:100AC00006C0843010F081E00EC08F5F0CC085300E
:100AD00010F081E001C08F5F80930D0180910D01C6
:100AE000833019F484E080930D0183E00E94A61006
:100AF0002CC080918002882309F4B7C180917F02C5
:100B000091E0892780937F02882371F08EE08093A3
:100B100028041092290410922A0490932B040E9416
:100B2000BB1D0E94511D11C08DE0809328041092BE
:100B3000290410922A0490932B040E94BB1D0E944A
:100B4000511D8BED93E00E940E1780918C0486302E
:100B500009F08BC110928C04809114028B3061F4E7
:100B600090911202911108C081E08093120280934B
:100B7000A7018093930179C19FEF980F953018F5E5
:100B80000E948520809114028330D1F484E690E0A5
:100B9000909381018093800160917C020E94850F77
:100BA00065E070E080E090E00E94051D8EE690E038
:100BB000909381018093800160917A010E94850F5A
:100BC0001092140252C18C3049F584E080931402D3
:100BD0000E9436208AE090E090938101809380010A
:100BE000C2E8D1E007E811E069918091800190911D
:100BF00081010E94850F8091800190918101019671
:100C0000909381018093800165E070E080E090E046
:100C10000E94051D0C171D0739F727C18F3191F46C
:100C20008EE1809314020E94721180916B030E94E6
:100C30009A1A84E190E09093810180938001609101
:100C40006B03AEC0803291F48EE1809314020E9457
:100C5000721186E490E0909381018093800160910D
:100C60007D010E94850F0E948C18FFC08132C1F463
:100C70008EE1809314020E9472118091AA019091DA
:100C80007C01981721F080937C010E948C1880E5EC
:100C900090E090938101809380016091AA0180C0CF
:100CA0008932B1F588E2809314028FEF80930B01B3
:100CB0001092A3021092A202809195010E946916DF
:100CC000809194018111F8CF0E94891010928101C6
:100CD00010928001C5E9D1E00AE911E069918091A3
:100CE0008001909181010E94850F809180019091F7
:100CF00081010196909381018093800165E070E00D
:100D000080E090E00E94051D0C171D0739F7ADC06B
:100D10008F30B9F484E0809314020E94362081E081
:100D2000809392018093900183E194E00E940E17DA
:100D30008EE190E090938101809380016EE771E0F5
:100D400078C08031F1F484E0809314020E94362050
:100D50008AE590E0909381018093800160917B010E
:100D60000E94850F65E070E080E090E00E94051D24
:100D700088E790E0909381018093800160918D01DC
:100D80000FC08A3281F488E2809314020E94891095
:100D900088E290E09093810180938001609100014E
:100DA0000E94850F62C0833169F584E0809314024C
:100DB0000E94362082E390E090938101809380012D
:100DC0006091A8010E94850FA091A801AA2309F4AF
:100DD0004CC00A2E000CBB0B20E335E70E9470319B
:100DE000611571058105910521F461E070E080E0F5
:100DF00090E06093EF037093F0038093F10390937E
:100E0000F20333C08431C1F484E0809314028091F2
:100E100095010E946916809194018111F8CF0E947A
:100E200036208CE390E090938101809380016AE802
:100E300071E00E94AF0E19C08E3111F0883269F452
:100E400084E0809314020E94362080917D028823E2
:100E500061F081E08093800208C0863009F093C57C
:100E600085E0809314020E94990F80918C04853054
:100E700009F089C510928C048BEE93E00E940E1746
:100E80008091A601882389F081E10E94F8161092D2
:100E9000A60188E080934D0460E081E494E00E9424
:100EA000150E81E0809392016EC58091A70181119A
:100EB00005C080919A01882309F45BC010928F01CC
:100EC00010928E0110928C01E0910301EE0FFF0B46
:100ED000E556FE4F83E090E0918380838FEF80930F
:100EE00003011092A70110929A01C1E0C0939201F0
:100EF00060E08DE00E949A1C10929401809107019D
:100F0000882361F010920601C093900110920501B0
:100F10001092910183E194E00E940E170E94941AAE
:100F200061E085E00E94A01E86E40E94D11184E069
:100F30000E94F816809195010E9469168091940193
:100F40008111F8CF68EB7BE080E090E00E94051D06
:100F500080917D02882349F081E0809380028BEDAF
:100F600093E00E940E1710927F0281E0809313029B
:100F70005EC2809111028823A9F08CE00E94711C4E
:100F8000892B09F054C281E08093A9019091070157
:100F9000992309F44CC21092060180939201109299
:100FA000050149C09091050580911402911104C07A
:100FB000811102C081E073C12FEF280F223008F0A9
:100FC00041C080918D01811132C280910801882336
:100FD00009F42DC281E08093A70180939301809151
:100FE0007B01813011F41092080180910701882360
:100FF00009F41DC280910601882319F081E08093D5
:10100000920182E390E0A0E0B0E080931704909317
:101010001804A0931904B0931A04809191018111CE
:1010200005C080910501882309F401C21092910145
:101030001092050181E08093900183E194E00E9489
:101040000E17F5C1913041F481112EC182E08093D9
:1010500014020E94921FEBC1923009F098C08111D6
:1010600021C08091800281110DC0809109010E94F0
:10107000B61A8536910514F084E690E090937A02D2
:10108000809379028091790290917A02019619F405
:1010900081E080930D0183E08093140280E00E9440
:1010A000A610C5C1833009F0FFC080918002811174
:1010B00045C04091790250917A024F3FBFEF5B07E4
:1010C000E9F1282F30E02417350734F4F901EB5EFD
:1010D000FD4F80838F5FF5CF80917A01813019F5C4
:1010E0000E945F180E94CD30C0917902C150D9F0A2
:1010F000EC2EF12C0E947F3087010B5E1D4FF80112
:10110000D08197012F5F3F4F032E000C440B550BEE
:101110000E94F330E62FF0E0EB5EFD4F8081D801B6
:101120008C93D083E3CF81E080937E0280917C0218
:101130000E949A1A82E080930D0179C180910D017D
:10114000823069F480910A0190917B02891303C077
:101150008F5F80937B0281E080937E0268C185303F
:1011600009F011C4109280020E94AA1A81E08093B3
:101170000D0180E00E94A61064E670E080E090E03F
:101180000E94051D80916B030E949A1A50C19330F2
:1011900009F078C0811106C084E0809314020E9497
:1011A000362045C1843009F07FC0E0910F018E2FB9
:1011B00090E0FC013197E830F10508F038C1EC5CB3
:1011C000FF4F0C946A318BE08093140280E00E9400
:1011D00017102DC18CE080931402E6C08EE180933D
:1011E000140280918002882349F0109280021092AC
:1011F0007F020E94AA1A81E080937D0281E08093A1
:101200000E010E94721113C188E28093140281E0E2
:1012100080930E010E9489100AC18FE0809314020E
:1012200080E0CEC080E1809314020E94941A60E0B6
:1012300081E00E94A01E8EE40E94D11160E08AE04D
:101240000E94A01E8DE40E94D11161E081E00E9405
:10125000A01E80918D01813011F486E301C087E3E7
:101260000E94D1110E94400FE2C084E180931402D9
:101270000E94311BDCC083E18093140280E00E9455
:10128000B60FD5C0943081F4811106C085E08093FB
:1012900014020E94990FCBC0853031F486E0809310
:1012A00014020E94EE1FC3C0863049F480910801E9
:1012B000882309F468C381E08093A501B8C08E310A
:1012C00061F580910E01813031F48FE18093140239
:1012D0000E941D1BACC0823031F480E28093140266
:1012E0000E940810A4C0833009F04DC381E28093AE
:1012F00014020E94941A60E083E00E94A01E8BE218
:101300000E94D11161E082E00E94A01E8CE20E9446
:10131000D11180E00E944D0F8AC0883259F580912A
:101320000E018130A1F489E2809314020E94941A84
:1013300060E084E00E94A01E82E20E94D11161E080
:1013400083E00E94A01E83E20E94D11170C082300F
:1013500009F019C38AE2809314020E94941A60E093
:1013600080E00E94A01E81E30E94D11180E00E94D3
:10137000090F5DC08B3071F4809195010E94691650
:10138000809194018111F8CF0E94362084E08093EF
:1013900014024DC08C3059F480910C018F5F87305E
:1013A00008F081E080930C010E94971140C08F30BB
:1013B00051F49091070181E089278093070182E031
:1013C0000E94401034C0803159F480917B018F5FBE
:1013D000823018F480937B0145CF10927B0142CF7D
:1013E0008F3149F480916B03882309F4CCC281E0EA
:1013F000809311021CC08A3281F484EB0E9469162A
:10140000809194018111F9CF809195010E94691614
:10141000809194018111F8CF0AC0843141F482E3B4
:101420008093010181E08093A7010E94F80E8091D2
:101430001402893209F0A7C280910B018F5F8530B9
:101440001CF480930B0102C010920B0100910B0160
:10145000002E000C110BF801EB56FE4F808190E03E
:101460009093A3028093A20260E083E00E94A01EFA
:10147000C80101960E94731F0E94740F8091A202FE
:101480000E946916809194018111F8CF7CC20E945C
:10149000EF2060938E0470938F0480939004909358
:1014A000910481E0809388048093890480918D0465
:1014B0008F5F80938D0430CA0E94EF2060938E046A
:1014C00070938F04809390049093910410928804F9
:1014D0003DCA87E066CA1092890486E080938C0436
:1014E00010928D047DCAFC01E45CFF4F0C946A31BC
:1014F000209105058091A102082E000C990B820F06
:10150000911D853091052CF497FF05C084E090E093
:1015100002C080E090E0809305050E94852097CA74
:101520008091A1022091010135E08302C0011124C4
:10153000820F911D8333910534F4843191052CF48D
:1015400084E190E002C082E390E0809301010E9478
:10155000EE1F7DCA80910D018130E1F520910901D6
:101560008091A102082E000C990B820F911D8331EE
:10157000910534F48A3091052CF48AE090E002C0A1
:1015800082E190E08093090180918002882369F0D4
:10159000109280020E94AA1A80E00E94A61064E6BF
:1015A00070E080E090E00E94051D809109010E949A
:1015B000B61A90937A02809379028536910534F0B9
:1015C00084E690E090937A028093790210927B02F5
:1015D00081E01AC08230D9F480917B022091A1026F
:1015E000022E000C330B280F311D8091790290914F
:1015F0007A02281739070CF4C90197FF02C080E06E
:1016000090E080937B0284E00E94A61020CA833081
:1016100061F480917A018F5F823018F480937A01AF
:1016200002C010927A0185E0EFCF843009F00FCA32
:1016300090917C028091A102890F80937C028F316E
:101640001CF08EE180937C0280917C0287FD1092D9
:101650007C0280917C020E949A1A82E0D5CF209170
:101660000F018091A102082E000C990B820F911D91
:101670008930910534F4181619062CF088E090E0B2
:1016800002C081E090E080930F010E943620DFC904
:10169000209104018091A102082E000C990B820F69
:1016A000911D8330910534F4181619062CF082E050
:1016B00090E002C081E090E0809304010E94990FC5
:1016C000C6C98091A102E0910C01F0E0EF57FE4FF6
:1016D0002081A5E08A02C0011124820F911D83336D
:1016E000910534F4843191052CF484E190E002C03A
:1016F00082E390E080830E949711A9C92091A10202
:1017000080917E0190917F01B5E02B02800D911DAB
:1017100011248F3F910519F014F08FEF90E0909312
:101720007F0180937E0180917E0190917F0197FFE0
:1017300004C010927F0110927E0181E00E9440104F
:1017400080917E018093D1048093C70480C98091E9
:101750008D018F5F823018F480938D0102C010924A
:101760008D0161E081E00E94A01E80918D01813099
:1017700011F486E301C087E30E94D11168C99091FA
:10178000A8018091A102890F84310CF083E180933C
:10179000A8018091A80187FD1092A80181E00E9414
:1017A000B60F55C92091A10280918A0190918B01B9
:1017B000E2E32E02800D911D11248F3DF6E29F077A
:1017C00014F08EED96E290938B0180938A018091C4
:1017D0008A0190918B01883E934034F488EE93E027
:1017E00090938B0180938A010E94F80E30C920915A
:1017F0000E018091A102082E000C990B820F911D01
:101800008430910534F4181619062CF083E090E02A
:1018100002C081E090E080930E010E94721117C90E
:1018200090916B038091A102890F8F310CF08EE1B2
:1018300080936B0380916B0387FD10926B0361E0D3
:101840008CE00E94A01E84E00E94D11161E08DE036
:101850000E94A01E80916B03082E000C990B0E9421
:10186000731FF5C880917D018F5F823018F48093DB
:101870007D0102C010927D010E940810E8C82091ED
:10188000AA018091A102082E000C990B820F911DD4
:101890008A30910534F4181619062CF089E090E08E
:1018A00002C081E090E08093AA010E94B61A8536BA
:1018B0000CF084E68093100281E00E944D0FC7C8AF
:1018C00020910E018091A102082E000C990B820F2D
:1018D000911D8330910534F4181619062CF082E01E
:1018E00090E002C081E090E080930E010E94891098
:1018F000AEC82091A1028091A2029091A302820F12
:10190000911D27FD9A95853B910514F084EB90E09D
:101910009093A3028093A2028091A2029091A302CD
:1019200097FF04C01092A3021092A2028091A2021B
:101930009091A3020E941B1E0E94740FE0910B0164
:101940000E2E000CFF0BEB56FE4F8091A2028083FF
:101950007EC88091000190E02091A102821B910934
:1019600027FD93958F31910534F4823091052CF445
:1019700082E090E002C08EE190E08093000181E07F
:101980000E94090F64C8DF91CF911F910F91FF90C2
:10199000EF900895CF92DF92EF92FF920F931F93F3
:1019A000CF93DF936C017A018B01C0E0D0E0CE15BC
:1019B000DF0581F0D8016D918D01D601ED91FC918B
:1019C0000190F081E02DC6010995892B11F0219637
:1019D000EECF7E01C701DF91CF911F910F91FF9054
:1019E000EF90DF90CF9008952091780130917901A8
:1019F0002817390771F49091760180917701981733
:101A000041F0E0917601F0E0EB55FD4F808190E0F0
:101A100008958FEF9FEF08951F93CF93DF93DC011D
:101A20005C968D919C915D97009739F421E030E0B0
:101A300013963C932E9312973BC05196ED91FC91D7
:101A4000529750962C915097322F30951FB75E9633
:101A50004C915E97742F727041FD6095F8944081AF
:101A6000772311F0422B01C043234083EC012197DF
:101A7000F1F748E0508160FF02C0522B01C05323B0
:101A80005083EC012197F1F76695415099F78081D9
:101A9000772319F08323808302C0282B20831FBF64
:101AA0005C968D919C915D970197F1F781E090E0B4
:101AB000DF91CF911F9108952091780130917901A4
:101AC0002817390771F4809177012091760190E011
:101AD000805C9F4F821B910960E470E00E94563148
:101AE000089580E090E00895209178013091790187
:101AF00028173907B9F490917601809177019817EA
:101B000089F0E0917601F0E0EB55FD4F8081209166
:101B1000760130E02F5F3F4F2F73332720937601FC
:101B200090E008958FEF9FEF0895089580E090E092
:101B300008950E949B331F920F920FB60F921124AB
:101B40002F933F934F935F936F937F938F939F93C5
:101B5000AF93BF93EF93FF93E0917801F0917901F8
:101B6000309709F451C0968DA685B785858591FF7C
:101B700004C09C91892329F447C09C91892309F0D2
:101B800043C0A389B4899C918589809589238C93CE
:101B9000868997890197F1F7608D718DA685B78544
:101BA000558538E020E0CB010197F1F7822F90E0D6
:101BB00095958795282F4C91452309F02068315041
:101BC00091F7868D81FD20958091770190E00196B7
:101BD0008F73992730917601381749F0A0917701DA
:101BE000B0E0AB55BD4F2C938093770103C0868D39
:101BF0008160868F828D938D0197F1F7A389B489D7
:101C00009C918589892B8C93FF91EF91BF91AF9126
:101C10009F918F917F916F915F914F913F912F9104
:101C20000F900FBE0F901F901895CF93FC01C481A9
:101C300021E020933B03C093A40210923F03109233
:101C40003E038485682B8FEC93E00E94621990918B
:101C50003E03913208F045C0809145038111FCCFCD
:101C600082E08093450381E0809347038FEF809368
:101C700044031092690390936803ABE1B3E0E8E496
:101C8000F3E080E0981721F02D9121938F5FFACF38
:101C900010926A0380916A03CC0FC82BC0936A0329
:101CA00080914603813061F41092460380916A036B
:101CB0008093BB008091BC0083FDF8CF85EC01C010
:101CC00085EE8093BC00809145038230E1F38091E2
:101CD00044038F3F31F080914403803211F08091B2
:101CE000440310923F0310923E0310923B03CF91A6
:101CF00008950F931F93CF938C01C62F0E94150E4A
:101D00006C2F6460C8010E94150E6C2F6B7FC80198
:101D10000E94150E83EC90E00197F1F7CF911F918F
:101D20000F9108950F931F93CF93DF938C01C62FCC
:101D3000D42F607F642B0E94790E80E1C89FB00190
:101D400011246D2BC801DF91CF911F910F910C943D
:101D5000790E41E00E94920E81E090E00895AF92EA
:101D6000BF92DF92EF92FF920F931F93CF93DF9377
:101D7000EC017B018B015C0182E0A80EB11CF80133
:101D8000D1908F01CE010E94DD30D81621F06D2D4B
:101D9000CE010E94E5302196CA15DB0581F7C70107
:101DA000DF91CF911F910F91FF90EF90DF90BF9047
:101DB000AF9008950F931F93CF93DF938C01EB01A6
:101DC0000E94DD308883C80101960E94DD3089833E
:101DD000CE01DF91CF911F910F910895CF93DF93A3
:101DE000EB010E94DD308883CE01DF91CF91089511
:101DF00061E083E00E94A01E80918A0190918B0196
:101E00000E94731F61E08CE00E94A01E80E40C948D
:101E1000D111882339F060E08CE00E94A01E84E09C
:101E20000E94D11160E08CE00E94A01E2091000170
:101E3000822F90E0A0E0B0E09C01AD01225031097A
:101E400041095109A4EEBFEF0E9420312CE130E09E
:101E500040E050E00E94F330CA01B901625E7F4F5A
:101E60008F4F9F4F97FF03C00E94571F03C04AE048
:101E70000E94161F90915104890F80935104089578
:101E800061E08AE00E94A01E80917B01813011F404
:101E900087E301C086E30C94D111CF93C82F60E093
:101EA0008BE00E94A01E8091AA010E94851F61E024
:101EB0008BE00E94A01E809110028F3F21F48DE2E2
:101EC000CF910C94D111CC2319F084E00E94D11150
:101ED00061E08BE00E94A01E80911002082E000C91
:101EE000990BCF910C94731F61E08AE00E94A01EB1
:101EF00084E00E94D11161E089E00E94A01E8091DF
:101F0000A2029091A3020C94731F1F93CF93DF93AF
:101F1000EC01162F0E94DD30181739F0612FCE0129
:101F2000DF91CF911F910C94E530DF91CF911F91FC
:101F300008950E94941A60E083E00E94A01E87E446
:101F40000E94D11180910401813019F0823039F062
:101F5000089561E082E00E94A01E88E405C061E06F
:101F600081E00E94A01E89E40C94D111CF93C82F68
:101F700081110AC00E94941A60E081E00E94A01EB4
:101F80008AE30E94D11103C0823008F03FC08091E3
:101F9000A80181110FC0CC2339F061E08AE00E94D2
:101FA000A01E84E00E94D11161E085E00E94A01E85
:101FB00087E329C061E085E00E94A01EA091A801EE
:101FC0000A2E000CBB0B2AE030E00E94703124E1A5
:101FD00030E040E050E00E94F330CA01B9010E94B5
:101FE0006E1A61E086E00E94A01E8091A80180FF29
:101FF00002C08BE301C08CE30E94D11161E089E053
:102000000E94A01E8DE3CF910C94D111CF91089521
:102010000E94941A61E086E00E94A01E80917D01DA
:10202000813011F486E301C087E30C94D111CF9382
:10203000C82F0E94941A60E080E00E94A01E84E3F2
:102040000E94D111C13031F461E082E00E94A01EF3
:1020500085E311C0C23091F461E085E00E94A01ECA
:1020600080918801909189010E94731F61E08AE04C
:102070000E94A01E8FE3CF910C94D111CF910895AF
:10208000CF93C82F811111C00E94941A60E080E0A4
:102090000E94A01E83E30E94D11160E08AE00E94AA
:1020A000A01E85E40E94D11102C0823048F561E093
:1020B00082E00E94A01E84E00E94D11161E082E0D3
:1020C0000E94A01EA0917E01B0917F0123E630E026
:1020D0000E9470312EEF30E040E050E00E94F3307B
:1020E000CA01B9010E946E1AC11111C061E08AE0F3
:1020F0000E94A01E80910701882329F086E304C076
:10210000823029F4F3CF87E3CF910C94D111CF9192
:1021100008950E94941A60E080E00E94A01E8FE261
:102120000E94D11180910E01813019F0823039F076
:10213000089561E083E00E94A01E80E305C061E095
:1021400084E00E94A01E81E30C94D111CF93C82F8C
:10215000811124C00E94941A60E080E00E94A01EB9
:102160008BE20E94D11160E089E00E94A01E83E40E
:102170000E94D11161E080E00E94A01E84E40E94D0
:10218000D11161E08BE00E94A01E80918002882323
:1021900009F476C08EE20E94D11172C0823008F438
:1021A0006FC0823009F098C060E08DE00E94A01EF0
:1021B0008FE40E94D11160E08CE00E94A01E80910B
:1021C0007C02082E000C990B0E94731FC33099F4F7
:1021D00080910D018330A9F038F4813079F082309C
:1021E000B9F461E08AE012C0843071F0853081F486
:1021F00061E08FE00BC0CC2359F30DC060E086E0B6
:1022000005C060E088E002C060E08EE00E94A01E91
:1022100081E40E94D111C43029F0C13019F0CC23DF
:1022200041F057C061E087E00E94A01E84E00E9458
:10223000D1118091790290917A02019671F061E05A
:1022400087E00E94A01EE0917B02F0E0EB5EFD4F74
:10225000808190E001960E94731FC53051F460E0C8
:1022600087E00E94A01E80917A01813029F480E5E8
:1022700004C0CC23A1F334C081E5CF910C94D111DB
:1022800060E084E00E94A01E809109010E94851FE9
:1022900061E083E00E94A01E8091790290917A0211
:1022A000019621F48DE20E94D1110FC0CC2319F0C8
:1022B00084E00E94D11161E083E00E94A01E809121
:1022C000790290917A020E94731FCC2309F473CF94
:1022D00003C0C53029F4C3CFC33009F09CCF78CFF9
:1022E000CF9108950E94941A60E085E00E94A01E9C
:1022F0008DE00E94D11180910E01823051F0833027
:1023000071F0813099F461E083E00E94A01E88E2C0
:102310000BC061E080E00E94A01E89E205C061E080
:1023200080E00E94A01E8AE20C94D11108950E94C0
:10233000941A61E080E00E94A01EE0910C01F0E0A0
:10234000EF57FE4F8081893110F485E10DC08E3149
:1023500010F486E109C0883210F487E105C08D329F
:1023600010F488E101C089E10E94D11160E080E0B1
:102370000E94A01E80910C010E94851F60E081E0F8
:102380000E94A01E87E20E94D11160E08AE00E94B4
:10239000A01EE0910C01F0E0EF57FE4F80810C94FD
:1023A000851F2F923F924F925F926F927F928F92F2
:1023B0009F92AF92BF92CF92DF92EF92FF920F93D4
:1023C0001F93CF93DF93CDB7DEB764970FB6F89422
:1023D000DEBF0FBECDBFE82FF0E0EE0FFF1FE250D3
:1023E000F94F659174918BEF92E00E94D630EBEF3C
:1023F000F2E001900020E9F731979F012B5F324016
:10240000190100E010E086E596E09C01990F440B6D
:10241000550B29873A874B875C878EEB95E09C01AB
:10242000990F440B550B2D873E874F87588B8EE9AC
:1024300095E09C01990F440B550B298B3A8B4B8BE4
:102440005C8B8EE895E06C01990FEE08FF0886E939
:1024500095E04C01990FAA08BB0886E895E02C018D
:10246000990F66087708021513050CF019C4F801D6
:10247000E550FD4F9081692F092E000C770B9B01D1
:10248000207C3327203C310581F4818187FF0DC0FA
:102490009F71682F6F73062E000C770B30E4939FAB
:1024A000600D711D112482E001C081E0080F111D33
:1024B0006F3244E0740709F49CC20CF0E1C06E3145
:1024C00084E0780709F4BEC30CF066C0653124E0EF
:1024D000720709F4AEC384F5613144E0740709F46E
:1024E000B2C1A4F4613084E0780709F4A2C360317A
:1024F00094E0790709F497C3603B710509F0C5C3FF
:102500006FED81E494E00E94A90EC4C3633124E01E
:10251000720709F4A7C10CF489C328E030E046EE45
:1025200056E0052E000C660B770BCE0101960E943B
:10253000452165E574E0A4C1693144E0740709F4FC
:10254000C2C1B4F4673184E0780709F49EC10CF08D
:10255000ABC128E030E04EED56E0052E000C660BD6
:10256000770BCE0101960E94452166E574E088C193
:102570006B3124E0720709F4B5C10CF45DC36C3112
:1025800044E0740709F45BC36D3154E0750709F04A
:102590007CC38CE591E076C3663284E0780709F469
:1025A000BFC194F5623224E0720709F454C3B4F455
:1025B000603244E0740709F448C30CF049C328E0D2
:1025C00030E046EB56E0052E000C660B770BCE0193
:1025D00001960E9445216BE574E052C1643284E0AB
:1025E000780709F48EC10CF039C328E030E04EEAD8
:1025F00056E0052E000C660B770BCE0101960E946B
:1026000045216CE574E03CC16A3224E0720709F4AC
:10261000B4C1B4F4683244E0740709F490C10CF01A
:102620009DC128E030E046E956E0052E000C660B1F
:10263000770BCE0101960E9445216FE574E020C121
:102640006C3284E0780709F4B6C10CF4A5C16D3290
:1026500024E0720709F4BEC16E3234E0730709F05A
:1026600014C328E030E04EE556E0052E000C660B62
:10267000770BCE0101960E94452166E674E000C109
:10268000603444E0740709F4F5C20CF074C0673399
:1026900084E0780709F4E7C194F5633324E0720716
:1026A00009F4C3C1B4F4613344E0740709F4AEC162
:1026B0000CF4D7C228E030E046E456E0052E000CCA
:1026C000660B770BCE0101960E94452169E674E006
:1026D000D7C0653384E0780709F4C6C20CF0B4C1F2
:1026E00028E030E046E356E0052E000C660B770B41
:1026F000CE0101960E9445216BE674E0C1C06B33A8
:1027000024E0720709F4DCC1B4F4693344E07407CF
:1027100009F4B8C10CF0C5C128E030E046E156E04C
:10272000052E000C660B770BCE0101960E94452109
:102730006FE674E0A5C06D3384E0780709F4DEC16C
:102740000CF4CDC16E3324E0720709F490C26F33EC
:1027500034E0730709F099C228E030E046EE55E016
:10276000052E000C660B770BCE0101960E944521C9
:1027700065E774E085C0683444E0740709F4FAC181
:1027800034F5643484E0780709F4D6C154F4623433
:1027900024E0720709F4C1C10CF06FC280E791E038
:1027A00071C2663444E0740709F4D5C10CF468C200
:1027B00028E030E046EC55E0052E000C660B770B68
:1027C000CE0101960E9445216AE774E059C06C343D
:1027D00084E0780709F4F9C1B4F46A3424E072079C
:1027E00009F4D5C10CF0E2C128E030E046EB55E039
:1027F000052E000C660B770BCE0101960E94452139
:102800006CE774E03DC06E3444E0740709F4F5C130
:102810000CF4E8C16F3484E0780709F4F9C161353C
:1028200094E0790709F031C228E030E04EE256E04A
:10283000052E000C660B770BCE0101960E944521F8
:102840006CE674E01DC028E030E046EF56E0052E4F
:10285000000C660B770BCE0101960E94452163E5C3
:1028600074E00EC028E030E04EEE56E0052E000C7D
:10287000660B770BCE0101960E94452164E574E05A
:10288000CE0101960E94A91E05C228E030E046ED67
:1028900056E0052E000C660B770BCE0101960E94C8
:1028A000452167E574E0ECCF28E030E04EEC56E0DF
:1028B000052E000C660B770BCE0101960E94452178
:1028C00068E574E0DDCF28E030E046EC56E0052E08
:1028D000000C660B770BCE0101960E94452169E53D
:1028E00074E0CECF28E030E04EEB56E0052E000C31
:1028F000660B770BCE0101960E9445216AE574E0D4
:10290000BFCF28E030E046EA56E0052E000C660B0B
:10291000770BCE0101960E9445216DE574E0B0CFA2
:1029200028E030E04EE956E0052E000C660B770BF0
:10293000CE0101960E9445216EE574E0A1CF28E00A
:1029400030E04EE856E0052E000C660B770BCE010A
:1029500001960E94452160E674E092CF28E030E0C5
:1029600046E856E0052E000C660B770BCE0101966B
:102970000E94452161E674E083CF28E030E04EE715
:1029800056E0052E000C660B770BCE0101960E94D7
:10299000452162E674E074CF28E030E046E756E077
:1029A000052E000C660B770BCE0101960E94452187
:1029B00063E674E065CF28E030E04EE656E0052E91
:1029C000000C660B770BCE0101960E94452164E650
:1029D00074E056CF28E030E046E656E0052E000CC5
:1029E000660B770BCE0101960E94452165E674E0E7
:1029F00047CF28E030E049855A856B857C85CE013C
:102A000001960E94452167E674E03ACF28E030E065
:102A10004EE456E0052E000C660B770BCE010196B6
:102A20000E94452168E674E02BCF28E030E04EE3B9
:102A300056E0052E000C660B770BCE0101960E9426
:102A400045216AE674E01CCF28E030E046E256E01B
:102A5000052E000C660B770BCE0101960E944521D6
:102A60006DE674E00DCF28E030E04EE156E0052E33
:102A7000000C660B770BCE0101960E9445216EE695
:102A800074E0FECE28E030E04EE056E0052E000C6B
:102A9000660B770BCE0101960E94452160E774E03A
:102AA000EFCE28E030E046E056E0052E000C660B45
:102AB000770BCE0101960E94452161E774E0E0CEDC
:102AC00028E030E04EEF55E0052E000C660B770B4A
:102AD000CE0101960E94452162E774E0D1CE28E044
:102AE00030E046EF55E0052E000C660B770BCE016B
:102AF00001960E94452163E774E0C2CE28E030E0F1
:102B00004EEE55E0052E000C660B770BCE010196BC
:102B10000E94452164E774E0B3CE28E030E04EED3A
:102B200055E0052E000C660B770BCE0101960E9436
:102B3000452166E774E0A4CE28E030E046ED55E09C
:102B4000052E000C660B770BCE0101960E944521E5
:102B500068E774E095CE28E030E04EEC55E0052EB5
:102B6000000C660B770BCE0101960E94452169E7A8
:102B700074E086CE28E030E04D855E856F857889EB
:102B8000CE0101960E9445216BE774E079CE28E0E2
:102B900030E04EEA55E0052E000C660B770BCE01B7
:102BA00001960E9445216DE774E06ACE28E030E08E
:102BB00046EA55E0052E000C660B770BCE01019618
:102BC0000E9445216EE774E05BCE28E030E0498941
:102BD0005A896B897C89CE0101960E9445216FE755
:102BE00074E04ECE28E030E0B501A401CE0101969C
:102BF0000E94452160E874E043CE28E030E0B70150
:102C0000A601CE0101960E94452161E874E038CE0C
:102C100028E030E0B301A201CE0101960E944521D7
:102C200062E874E02DCE82E591E02CC084E591E06D
:102C300029C086E591E026C088E591E023C08AE5B9
:102C400091E020C08EE591E01DC080E691E01AC0C1
:102C500082E691E017C084E691E014C086E691E038
:102C600011C088E691E00EC08AE691E00BC08CE6C8
:102C700091E008C08EE691E005C082E791E002C0D5
:102C800084E791E00E946F1E05C041E081E494E07A
:102C90000E94920E809151048F5F80935104E3CB88
:102CA00064960FB6F894DEBF0FBECDBFDF91CF9113
:102CB0001F910F91FF90EF90DF90CF90BF90AF905A
:102CC0009F908F907F906F905F904F903F902F904C
:102CD00008950F931F93CF93DF93C82F8091F30232
:102CE000811107C0809195018093F20281E0809369
:102CF000F30280919401811113C08091F2028C172C
:102D000079F081E0809394011092F1020E94EF200B
:102D10006093ED027093EE028093EF029093F002C5
:102D200080919401882309F455C08091F102882391
:102D3000D9F00E94EF200091ED021091EE02209157
:102D4000EF023091F002DC01CB01801B910BA20B52
:102D5000B30B843F9140A105B10508F444C0109223
:102D6000F102109294013FC00E94EF200091ED0209
:102D70001091EE022091EF023091F002AB01BC0104
:102D8000401B510B620B730B8091000190E0A0E09F
:102D9000B0E0481759076A077B0728F10E94EF2027
:102DA0006093ED027093EE028093EF029093F00235
:102DB0008091F202C81798F481508093F202D0916A
:102DC000F2028D2F90E00E941B1ECD130CC081E0FB
:102DD0008093F1028091F102882329F0AACF8C1709
:102DE00070F78F5FEACFDF91CF911F910F91089518
:102DF00090918002911111C090916B03992369F019
:102E000092E1909328041092290410922A0480934E
:102E10002B040E94BB1D0C94511D0895CF93DF938A
:102E2000EC010E94EF20688379838A839B83DF9182
:102E3000CF9108950F931F93CF93DF93EC010E94DE
:102E4000EF20088119812A813B81DC01CB01801BA5
:102E5000910BA20BB30B0C811D812E813F8180173A
:102E60009107A207B30740F00E94EF20688379839F
:102E70008A839B8381E001C080E0DF91CF911F9125
:102E80000F9108958F3F910509F024F49FEF9093DF
:102E9000EC020AC09C013A952F3F310550F49EEF99
:102EA000981B9093EC028FEF8093EB021092EA0252
:102EB00037C09C012F5F31402F3F310538F410920D
:102EC000EC029FEF9093EB028E5F28C09C012E5F77
:102ED00032402F3F310538F41092EC029CEF981BE2
:102EE0009093EB020BC09C012D5F33402F3F3105C7
:102EF00038F48C5F8093EC021092EB028FEF0EC0DF
:102F00009C012C5F34402F3F310550F49FEF90938C
:102F1000EC021092EB029AEF981B892F8093EA0241
:102F20007091EB026091EC028091EA020895DF92C9
:102F3000EF92FF920F931F93CF93DF9300D000D0B7
:102F4000CDB7DEB7FC01A781B0859C918185892B27
:102F50008C937481E580F6806185808191819C01EC
:102F6000220F331F280F391F42818381D7019C9183
:102F7000162F10951923692B0FB7F894E42FF82F0B
:102F8000CF01820F931FE817F90709F42BC02081A6
:102F9000279F900111243A832181729F900111246F
:102FA00039832281729F900111243B83AE014F5FD0
:102FB0005F4F24E0215011F43396E5CFDA01DD9024
:102FC000AD01D70138E06C93D7FE1C93DD0C3A9528
:102FD00000C000C000C000C000C010F400C01C93BE
:102FE00091F7E8CF0FBF0F900F900F900F90DF91E8
:102FF000CF911F910F91FF90EF90DF900895FC010A
:1030000020E030E080E090E0408151818417950716
:10301000ACF4A281B381A20FB31F1C92A281B38131
:10302000A20FB31F11961C92A281B381A20FB31FEE
:1030300012961C9201962D5F3F4FE6CF08951F9286
:103040000F920FB60F9211242F938F939F93AF93EC
:10305000BF938091E90281508093E9028091E5025B
:103060009091E602A091E702B091E802BA2FA92F51
:10307000982F88278093E5029093E602A093E702B9
:10308000B093E802209184008091E5029091E602DD
:10309000A091E702B091E80282278093E502909325
:1030A000E602A093E702B093E802BF91AF919F912F
:1030B0008F912F910F900FBE0F901F901895109227
:1030C000E5021092E6021092E7021092E80280E216
:1030D0008093E902F89414BE809160008861809327
:1030E000600080E48093600078948091E902181673
:1030F000E4F3F89414BE80916000806180936000D6
:103100001092600078946091E5027091E6028091DF
:10311000E7029091E8020895EF92FF920F931F93B8
:10312000CF93DF93409110024F3FC1F180E0042E16
:10313000000C550B282F30E02417350734F4F90123
:10314000E555FE4F80838F5FF5CF10920F0280917F
:103150007D01813019F50E945F180E94CD30C09129
:103160001002C150D9F0EC2EF12C0E947F30870163
:1031700005551E4FD801DC9197012F5F3F4F032E5D
:10318000000C440B550B0E94F330E62FF0E0E555A0
:10319000FE4F8081D8018C93D083E3CFDF91CF9114
:1031A0001F910F91FF90EF90089585ED8093BC00E3
:1031B0008091BC0084FDFCCF10924503089540919E
:1031C000AC03262F30E0240F311D21323105DCF411
:1031D000209145032430C9F4FC0180E090E086177B
:1031E00058F43091AC032191DC01A457BC4FA30FDC
:1031F000B11D2C930196F3CF8091AC03680F6093BF
:10320000AC0380E0089581E0089582E00895089578
:1032100008950895E0913D0380913C03E81730F450
:10322000F0E0E459FC4F808190E008958FEF9FEF2C
:10323000089590913D0380913C03981750F4E92F35
:10324000F0E0E459FC4F208130E09F5F90933D0314
:1032500002C02FEF3FEFC901089580913C0390E039
:1032600020913D03821B91090895CF92DF92EF9246
:10327000FF920F931F93CF93DF937C01CB018A01C1
:1032800020913B03222389F0EB016B01C40ED51E74
:10329000CC15DD0569F06991D701ED91FC910190A4
:1032A000F081E02DC7010995F3CF642F0E94DF184C
:1032B000C801DF91CF911F910F91FF90EF90DF90A8
:1032C000CF900895CF93DF931F92CDB7DEB7698378
:1032D00020913B032223D1F020913E03203240F085
:1032E00021E030E0FC013383228380E090E015C0D0
:1032F00080913F03E82FF0E0E55EFC4F99819083D9
:103300008F5F80933F0380933E0305C061E0CE0151
:1033100001960E94DF1881E090E00F90DF91CF913D
:103320000895833081F028F4813099F08230A1F043
:1033300008958730A9F08830B9F08430D1F48091B5
:1033400080008F7D03C0809180008F778093800004
:10335000089584B58F7702C084B58F7D84BD0895AC
:103360008091B0008F7703C08091B0008F7D8093F3
:10337000B00008950F931F9380912304909124042B
:10338000DC01ED91FC910084F185E02D09950A970F
:10339000FCF40E94EF200091390410913A0420912E
:1033A0003B0430913C04DC01CB01801B910BA20B50
:1033B000B30B00913D0410913E0420913F043091E5
:1033C000400480179107A207B307B0F280E083C0E2
:1033D0008091230490912404DC01ED91FC910284FE
:1033E000F385E02D099580932F048091230490911B
:1033F0002404DC01ED91FC910284F385E02D099514
:10340000809330048091230490912404DC01ED9199
:10341000FC910284F385E02D09958093310480911D
:10342000230490912404DC01ED91FC910284F38546
:10343000E02D099580933204809123049091240417
:10344000DC01ED91FC910284F385E02D09958093D8
:1034500033048091230490912404DC01ED91FC91CC
:103460000284F385E02D0995809334048091230430
:1034700090912404DC01ED91FC910284F385E02D10
:103480000995809335048091230490912404DC01F4
:10349000ED91FC910284F385E02D0995809336042B
:1034A0008091230490912404DC01ED91FC9102842D
:1034B000F385E02D09958093370480912304909142
:1034C0002404DC01ED91FC910284F385E02D099543
:1034D0008093380481E01F910F91089597FF03C0F6
:1034E0000E94571F03C04AE00E94161F909151048A
:1034F000890F809351040895CF93DF93EC0140E04E
:1035000061E00E94920E8BE39FE10197F1F78985BC
:10351000882339F040E060E0CE01DF91CF910C9438
:10352000711EDF91CF91089581E494E00E947C1A8E
:103530000C94E31D8F3168F496E090932804109268
:10354000290410922A0480932B040E94BB1D0C9422
:10355000511D0895E3E2F4E086E185831682178227
:1035600081E080870E94BB1D0C94511D0F931F9317
:10357000182F8091230490912404DC01ED91FC919B
:103580000084F185E02D0995892B61F08091230459
:1035900090912404DC01ED91FC910284F385E02DEF
:1035A0000995E7CF8EE48093280481E08093290475
:1035B00010922A0410932B040E94BB1D0E94511DDF
:1035C0000E94EF206093390470933A0480933B0487
:1035D00090933C040E94BA19882351F180913204DF
:1035E0008E34F1F00E94EF200091390410913A04DA
:1035F00020913B0430913C04DC01CB01801B910BFA
:10360000A20BB30B00913D0410913E0420913F04A6
:103610003091400480179107A207B307D8F208C081
:10362000809134049091350498278927982702C007
:103630008FEF9FEF1F910F9108950E94941A61E000
:1036400080E00E94A01E82E30E94D11161E08DE023
:103650000E94A01E80916B03082E000C990B0C9405
:10366000731F0E94941A60E081E00E94A01E8EE306
:103670000E94D11161E088E00E94A01E8FE30E94A9
:10368000D1110C94F80E1F920F920FB60F921124C5
:103690002F933F934F935F936F937F938F939F935A
:1036A000AF93BF93EF93FF938091B900887F8036EB
:1036B00009F49CC068F5883209F45BC090F480314D
:1036C00009F454C038F4882309F4F6C0883009F4AA
:1036D0004DC0F6C0883109F44CC0803209F45DC099
:1036E000EFC0803409F468C048F4803309F455C051
:1036F000883309F0E5C080934403D8C0803509F4CD
:103700004FC0883509F45DC0883409F0D9C0D6C0EF
:10371000883909F4C7C0A8F4883709F467C038F4B9
:10372000883609F463C0803709F460C0C9C088389E
:1037300009F4B8C0803909F45FC0803809F0C0C00E
:103740005BC0803B09F486C038F4803A09F466C057
:10375000883A09F47FC0B4C0803C09F4A7C0883C13
:1037600009F4A4C0883B09F48AC0AAC080916A0306
:1037700010C09091690380916803981770F5E091EB
:10378000690381E08E0F80936903F0E0E85BFC4FF2
:1037900080818093BB0085EC86C0809344038EC0FB
:1037A000E091690381E08E0F809369038091BB00F3
:1037B000F0E0E85BFC4F808390916903809168039F
:1037C0006EC0E091690381E08E0F80936903809160
:1037D000BB00F0E0E85BFC4F8083809147038111E0
:1037E0006DC081E08093460384EA61C083E08093EA
:1037F00045031092CE03CFCF8091CE03803208F0E4
:1038000051C0E091CE0381E08E0F8093CE03809172
:10381000BB00F0E0E255FC4F8083BDCF85EC809388
:10382000BC00109245038091CE03803230F4E091C9
:10383000CE03F0E0E255FC4F10826091CE0370E0C1
:10384000E0914203F09143038EEA93E009951092D0
:10385000CE0336C084E0809345031092AD031092EE
:10386000AC03E0914003F091410309958091AC03D2
:10387000811105C081E08093AC0310928C03E0912C
:10388000AD0381E08E0F8093AD03F0E0E457FC4F71
:1038900080818093BB009091AD038091AC03981719
:1038A00008F479CF85E88093BC000AC085EC80934A
:1038B000BC001092450304C0109244030E94D51826
:1038C000FF91EF91BF91AF919F918F917F916F91F8
:1038D0005F914F913F912F910F900FBE0F901F90CE
:1038E0001895CF93DF93282F30E0F901E455F84F76
:1038F0008491F901E851F84FD491F901EC52F84F55
:10390000C491CC2391F081110E949119EC2FF0E029
:10391000EE0FFF1FE054F84FA591B491EC91ED2309
:1039200081E090E021F480E002C080E090E0DF914F
:10393000CF9108951F93CF93DF93282F30E0F901A3
:10394000E455F84F8491F901E851F84FD491F90109
:10395000EC52F84FC491CC23C1F0162F81110E9474
:103960009119EC2FF0E0EE0FFF1FE653F84FA591F1
:10397000B4919FB7F894111104C08C91D095D823BD
:1039800002C0EC91DE2BDC939FBFDF91CF911F91A2
:103990000895CF93DF9390E0FC01E851F84F249114
:1039A000FC01EC52F84F8491882361F190E0880F7C
:1039B000991FFC01EE55F84FC591D491FC01E653D7
:1039C000F84FA591B491611109C09FB7F89488810F
:1039D000209582238883EC912E230BC0623061F402
:1039E0009FB7F8948881322F309583238883EC9198
:1039F0002E2B2C939FBF06C08FB7F894E8812E2BF7
:103A000028838FBFDF91CF9108958F929F92AF92BD
:103A1000BF92CF92DF92EF92FF926B017C010E94E6
:103A2000CA204B015C01C114D104E104F104F1F09E
:103A30000E94CA20DC01CB0188199909AA09BB0997
:103A4000883E9340A105B10570F321E0C21AD10868
:103A5000E108F10888EE880E83E0981EA11CB11CD5
:103A6000C114D104E104F10419F7DDCFFF90EF9008
:103A7000DF90CF90BF90AF909F908F900895009768
:103A800069F0FC0101900020E9F73197AF01481B74
:103A9000590BBC0181E494E00C94CA0C80E090E0E6
:103AA0000895CF93DF93C3E2D4E088819981DC014C
:103AB000ED91FC910190F081E02D6A81099588815A
:103AC0009981DC01ED91FC910190F081E02D6B81F9
:103AD000099588819981DC01ED91FC910190F0813B
:103AE000E02D6C81099588819981DC01ED91FC9133
:103AF0000190F081E02D6D81099588819981DC012B
:103B0000ED91FC910190F081E02D6E810995888105
:103B10009981DC01ED91FC910190F081E02D6F81A4
:103B2000099588819981DC01ED91FC910190F081EA
:103B3000E02D6885099588819981DC01ED91FC91E2
:103B40000190F081E02D6985099588819981DC01DA
:103B5000ED91FC910190F081E02D6A8509958881B5
:103B60009981DC01ED91FC910190F081E02D6B8554
:103B7000DF91CF910994E3E2F4E02381848190E026
:103B8000820F911D2581820F911D2681820F911D2B
:103B90002781820F911D2085820F911D919581951E
:103BA00091099187828708959C01220F331F820F0C
:103BB000931FE091CF04F091D004E80FF91F4083E8
:103BC000518362830895E1E4F4E0178616868FEF4F
:103BD000828B838B848B858B868B878B808F818F69
:103BE000828F838F848F858F868F878F80A381A319
:103BF00082A383A384A385A386A387A380A781A789
:103C000082A783A784A785A786A787A780AB81AB58
:103C100082AB83AB84AB85AB86AB87AB80AF81AF28
:103C200082AF83AF84AF85AF86AF87AF80938104C7
:103C3000809382040895CF93DF93DC0180911B046D
:103C400087FD4AC0A03282E0B807D8F4A53BB10591
:103C500010F0A4EBB0E0C0911F04D091200420919B
:103C60002104309122042C1B3D0B0E94473124EB90
:103C700030E040E050E00E94F330DE01A20FB31FBD
:103C800002C0AA0FBB1FE0911C04F0911D04B18378
:103C9000A08380911E0481111FC020918400309167
:103CA00085008081918128173907B8F380911B0422
:103CB000893021F480918000805804C09091800068
:103CC00080E289278093800061E080911B040E943C
:103CD000C91C81E080931E04DF91CF9108950C945C
:103CE0003F1DCF93DF93CDB7DEB728970FB6F8947B
:103CF000DEBF0FBECDBF9C0188E0EAE1F1E0DE014E
:103D0000119601900D928A95E1F7F901808584174B
:103D100010F44FEF480FFE013196E40FF11DE40F50
:103D2000F11D9081690F606840E0C90128960FB6C7
:103D3000F894DEBF0FBECDBFDF91CF910C94920EF1
:103D4000462FE1E4F4E0808B618B682FCF010C9467
:103D5000711ECF92DF92EF92FF920F931F93CF933A
:103D6000DF93FB0120812F3F09F04AC08B017C01CA
:103D7000D0905104C090520460914F046770F8E0F5
:103D80006F9FB0011124606440E081E494E00E94E0
:103D9000920EE70188E0E80EF11C699181E494E05D
:103DA0000E94A90EEC16FD06C1F76C2D8D2D0E9408
:103DB000A01E60914F0481E494E00E94A90E8091BE
:103DC0004F04F801808380914F0490915004019634
:103DD0009093500480934F0420914E0430E082175A
:103DE0009307DCF01092500410924F04DF91CF91B2
:103DF0001F910F91FF90EF90DF90CF900C94E31DF7
:103E0000622F81E494E0DF91CF911F910F91FF9099
:103E1000EF90DF90CF900C94A90EDF91CF911F917E
:103E20000F91FF90EF90DF90CF9008958F929F9227
:103E3000AF92BF920F931F93CF93DF93CDB7DEB7AF
:103E4000A1970FB6F894DEBF0FBECDBF19A24230C6
:103E500008F44AE08E010F5D1F4F842E912CA12C97
:103E6000B12CA50194010E942531E62FB901CA01A8
:103E700001501109EA3014F4E05D01C0E95CD80199
:103E8000EC93232B242B252B61F7C8010E943F1DA7
:103E9000A1960FB6F894DEBF0FBECDBFDF91CF91D4
:103EA0001F910F91BF90AF909F908F900895CF92E8
:103EB000DF92EF92FF926B017C0141E06DE281E4C1
:103EC00094E00E94920E66277727CB016C197D093A
:103ED0008E099F094AE00E94161F0196FF90EF90FD
:103EE000DF90CF900895BC01990F880B990B97FF35
:103EF00003C00E94571F03C04AE00E94161F909102
:103F00005104890F809351040895682F70E080E078
:103F100090E04AE00E94161FE1E4F4E09089890FE6
:103F2000808B08950E94941A60E080E00E94A01E99
:103F300084E20E94D11160E082E00E94A01E809184
:103F400082010E94851F60E087E00E94A01E809190
:103F500083010E94851F60E08CE00E94A01E80917A
:103F600084010E94851F61E080E00E94A01E85E21E
:103F70000E94D11161E082E00E94A01E8091850123
:103F80000E94851F61E087E00E94A01E809186014B
:103F90000E94851F61E08CE00E94A01E8091870135
:103FA0000E94851F80918D01813039F461E08FE09E
:103FB0000E94A01E86E20C94D11108950E94941ACA
:103FC00060E082E00E94A01E8AE10E94D11161E0BF
:103FD00080E00E94A01E8BE10C94D1110E94941AE3
:103FE00060E080E00E94A01E84E10E94D11160E0A8
:103FF00087E00E94A01E8DE10E94D11160E08AE05E
:104000000E94A01E809101010E94851F61E080E056
:104010000E94A01E80910101893110F485E10DC03C
:104020008E3110F486E109C0883210F487E105C0B2
:104030008D3210F488E101C089E10E94D111809194
:104040008D01813039F461E08FE00E94A01E86E28C
:104050000E94D11180911402863039F461E08FE022
:104060000E94A01E8AE40C94D11108950E94941A13
:1040700060E083E00E94A01E8BE00E94D11161E00D
:1040800080E00E94A01E82E40E94D11161E08FE0D6
:104090000E94A01E81E40E94D111E0910F018E2F99
:1040A00090E0FC013197E830F10570F5E959FF4FD8
:1040B00061E00C946A3184E00E94A01E8CE022C072
:1040C00082E00E94A01E89E01DC085E00E94A01E23
:1040D0008DE018C082E00E94A01E8EE013C082E036
:1040E0000E94A01E8FE00EC082E00E94A01E80E110
:1040F00009C082E00E94A01E83E104C083E00E9408
:10410000A01E82E10C94D11108950E94941A60E0DF
:1041100083E00E94A01E87E00E94D11161E080E050
:104120000E94A01E82E40E94D11161E08FE00E94F3
:10413000A01E81E40E94D111809105058230B9F062
:1041400028F4882341F0813061F008958330A9F08C
:104150008430C9F0089561E086E00E94A01E88E0E6
:1041600017C061E082E00E94A01E89E011C061E0FA
:1041700085E00E94A01E8AE00BC061E083E00E94FF
:10418000A01E8BE005C061E083E00E94A01E87E4D2
:104190000C94D1113FB7F89480910B0590910C05C8
:1041A000A0910D05B0910E0526B5A89B05C02F3F27
:1041B00019F00196A11DB11D3FBFBA2FA92F982F4D
:1041C0008827820F911DA11DB11DBC01CD0142E0C8
:1041D000660F771F881F991F4A95D1F708952FB74B
:1041E000F8946091070570910805809109059091F8
:1041F0000A052FBF08951F920F920FB60F92112438
:104200002F933F938F939F93AF93BF938091070515
:1042100090910805A0910905B0910A053091060515
:1042200023E0230F2D3720F40196A11DB11D05C0F9
:1042300026E8230F0296A11DB11D20930605809349
:10424000070590930805A0930905B0930A0580918E
:104250000B0590910C05A0910D05B0910E050196EE
:10426000A11DB11D80930B0590930C05A0930D0526
:10427000B0930E05BF91AF919F918F913F912F9178
:104280000F900FBE0F901F901895FA01DC0102C02D
:1042900005900D9221503040D8F70895CF93DF93C9
:1042A00000D01F92CDB7DEB7789484B5826084BD0C
:1042B00084B5816084BD85B5826085BD85B581602A
:1042C00085BD80916E00816080936E0010928100A8
:1042D0008091810082608093810080918100816063
:1042E0008093810080918000816080938000809124
:1042F000B10084608093B1008091B00081608093B0
:10430000B00080917A00846080937A0080917A0076
:10431000826080937A0080917A00816080937A0035
:1043200080917A00806880937A001092C1008DECB1
:1043300094E00E94FF178DEC94E00E94971783ECA5
:1043400094E00E94FF1783EC94E00E94971768EEB8
:1043500073E080E090E00E94051D1092F20410923C
:10436000F1041092F0041092EF041092EE041092F7
:10437000ED048DE991E09093F4048093F30490911F
:10438000E304963108F058C02DEB30E03093EE0492
:104390002093ED042BE931E03093F0042093EF04F7
:1043A0002CE231E03093F2042093F1044091680054
:1043B000983058F031E09E3008F430E021E0822F50
:1043C00001C0880F3A95EAF701C084E0842B8093FE
:1043D0006800983038F09E3040F0963148F42CE672
:1043E00030E008C02DE630E005C02BE630E002C02A
:1043F00020E030E03093EB042093EA04983030F46E
:1044000081E001C0880F9A95EAF70EC0292F30E0AD
:104410009E3018F42850310902C02E50310981E035
:1044200001C0880F2A95EAF78093EC048091F30489
:104430009091F4040197F1F78091F1049091F204C6
:10444000892B49F1E0917801F091790124E0E73D71
:10445000F20709F1309739F0A389B4899C918589D5
:10446000809589238C938091F5048E7F8093F50449
:10447000109277011092760187ED94E09093790184
:1044800080937801E091EA04F091EB0490818091AF
:10449000EC04892B808364E670E080E090E00E9469
:1044A000051D87ED94E090932404809323043EE758
:1044B000309325042FEF2093260496E09093270451
:1044C0008FEE80932E0430932F042093300490932A
:1044D00031048093380461E08DE00E94C91C60E0E3
:1044E0008DE00E949A1C84E191E09B838A8360E0C6
:1044F000AA81BB818D91BB83AA830E94C91CEA81DA
:10450000FB81E951F14099F760E08CE00E94C91C01
:1045100085E991E09B838A83FAE9EF2EF1E0FF2E93
:1045200000918001109181016A817B81C8010E9404
:10453000EE0EAA81BB818C918150843B18F0809152
:1045400088018C930F5F1F4F1093810100938001AE
:1045500080918801909189018D9690938901809333
:104560008801EA81FB813196FB83EA83EE16FF0620
:10457000B9F68AE090E0909381018093800182E80F
:1045800091E09B838A83E4E1FE2E009180011091EB
:1045900081016A817B81C8010E94EE0EAA81BB81E4
:1045A0008C9184518F3108F0FC920F5F1F4F109354
:1045B000810100938001EA81FB813196FB83EA83CC
:1045C000E758F14011F784E190E0909381018093E6
:1045D00080016BE673E00E94EE0E80916B038F31D9
:1045E00018F08AE080936B038EE190E09093810154
:1045F000809380016EE771E00E94DA0E80917E0167
:1046000090917F018F3F910539F030F084E690E082
:1046100090937F0180937E0188E290E090938101E6
:104620008093800160E071E00E94EE0E80910001B5
:1046300085508A3118F08AE08093000182E390E08F
:10464000909381018093800168EA71E00E94EE0EF0
:10465000A091A8018FEF8A0F843118F01092A80161
:104660000FC00A2E000CBB0B20E335E70E9470310F
:104670006093EF037093F0038093F1039093F20340
:104680008CE390E090938101809380016AE871E06F
:104690000E94DA0E80918A0190918B01885E93408E
:1046A0008932934230F088E893E190938B018093B4
:1046B0008A0186E490E090938101809380016DE708
:1046C00071E00E94EE0E80917D01823010F0109218
:1046D0007D0180E590E090938101809380016AEAFA
:1046E00071E00E94EE0E8091AA018150893018F08D
:1046F00081E08093AA018091AA0180937C018AE5E0
:1047000090E090938101809380016BE771E00E94BB
:10471000EE0E80917B01823018F081E080937B0166
:1047200084E690E090938101809380016CE772E0D1
:104730000E94EE0E80917C028F3118F08AE0809307
:104740007C028EE690E090938101809380016AE77D
:1047500071E00E94EE0E80917A01823018F081E0C3
:1047600080937A0188E790E09093810180938001A3
:104770006DE871E00E94EE0E80918D01823018F09C
:1047800081E080938D01109289011092880164E686
:1047900070E080E090E00E94051D87E0809328048F
:1047A0001092290410922A0410922B040E94BB1D1F
:1047B0000E94511D64E670E080E090E00E94051DBB
:1047C0008091AA010E94B61A8093100285361CF0CF
:1047D00084E68093100264E670E080E090E00E943E
:1047E000051D80916B030E949A1A64E670E080E0D8
:1047F00090E00E94051D81E00E94F81610923D0392
:1048000010923C0310923F0310923E031092450316
:1048100081E0809347031092460361E082E10E94A9
:104820009A1C61E083E10E949A1C8091B9008E7FFE
:104830008093B9008091B9008D7F8093B90088E49E
:104840008093B80085E48093BC0087E099E1909361
:1048500041038093400388E099E190934303809360
:1048600042031092460480914C04823018F098E084
:10487000909346048093490462E370E080E090E006
:104880000E94051D60914D0481E494E00E94150E84
:1048900068EE73E080E090E00E94051D60E381E433
:1048A00094E00E94790E8BE496E40197F1F760E3BF
:1048B00081E494E00E94790EEBE4F6E43197F1F79D
:1048C00060E381E494E00E94790E83E592E0019731
:1048D000F1F760E281E494E00E94790E6091460471
:1048E000606240E081E494E00E94920E84E0809354
:1048F000470440E06CE081E494E00E94920E81E481
:1049000094E00E947C1AF2E0F093480440E066E0F4
:1049100081E494E00E94920E40E062E081E494E041
:104920000E94920E8BE39FE10197F1F788E080935C
:104930004D0460E081E494E00E94150E60E087E0A1
:104940000E94A01E80E00E94D11161E081E00E94DF
:10495000A01E81E00E94D11180917E018093D1043C
:104960008093C70480911E0481113AC080E494E0D2
:104970009093200480931F0480EC92E19093220492
:104980008093210489E080931B0488E890E0909351
:104990001D0480931C0422E0209380008AE1809310
:1049A000810080E49CE9909387008093860080E8F2
:1049B0009BE090938B0080938A0090938900809372
:1049C000880020918400309185008091860090912C
:1049D00087008217930720F41092850010928400BC
:1049E0008091950190E00E941B1E60ED77E080E0D1
:1049F00090E00E94051D0E9485200E948C1872E0A4
:104A0000672E712C0E942A0483E094E00E941A17FA
:104A1000811106C08091A701882309F452C3C6C042
:104A20000BE911E044E1E42E41E0F42E54E1B52E0F
:104A300068E0A62EC701845191406C01D7018D9189
:104A40007D010E94711CF80120813181232B09F026
:104A500085C0892B09F4A3C080910801882309F43B
:104A60009EC081E090E0918380834FEF50E060E052
:104A7000C6010E94D41D91E0909393028091A701FA
:104A800081110BC08091A601811107C080919A010C
:104A9000811103C08B2D0E94F816809182028F5FD6
:104AA000809382028BEE93E00E940E178091A60104
:104AB0008823B9F081E10E94F8161092A6011092A5
:104AC0008C04A0924D0460E081E494E00E94150EF5
:104AD000A1E0A093920160ED77E080E090E00E9479
:104AE000051DD0908D01B1E0DB1259C080911402F8
:104AF0008150823008F053C08091A70181114FC0CE
:104B00000E94DE1FD092A70180910701882309F43B
:104B100046C0809106018111D092920182E390E01B
:104B2000A0E0B0E08093170490931804A0931904B8
:104B3000B0931A0480919101811104C08091050104
:104B4000882369F1109291011092050191E09093F0
:104B5000900183E194E00E940E1721C0892BF9F4A3
:104B6000D8011D921C9280910601811109C040E07C
:104B700050E060E0C6010E94D41DB1E0B093930202
:104B800080910301082E000C990BC816D90611F468
:104B90000C94842E809182028150809382020E5F59
:104BA0001F4FB394F9E1BF1245CF34CF80918E01EE
:104BB00090918F018130910509F45BC140F0823002
:104BC000910509F453C2039709F4DBC17AC28091BD
:104BD0009401811171C040910301E0901402909101
:104BE000040180919802ABE9B1E000E010E0F02E02
:104BF0002D913D912130310509F053C0041709F47E
:104C000050C026E0E21219C0282F25306CF4E22FA4
:104C1000022E000CFF0BE656FD4F30813F3F11F096
:104C2000822F02C02F5FF1CF913081F4E82FF0E0A6
:104C3000E656FD4F2081F21234C080939802109204
:104C4000020180918C01882399F00DC0923049F5C2
:104C5000E82FF0E0E656FD4F2081F21222C08430AA
:104C600060F78F5FEACF8CE00E94711C892B39F0CE
:104C700080911202811103C084E1E812F5C5F0921F
:104C80000301A1E0B0E0B0938F01A0938E01000F6B
:104C9000111FF801E556FE4F82E090E0918380837A
:104CA0000BC00F5F1F4F0530110509F0A0CF809397
:104CB000980291E09093020180910201882309F407
:104CC00000C210920801809195010E94691680919E
:104CD00094018111F6C180EA9FE0A0E0B0E08093EA
:104CE000E7039093E803A093E903B093EA0383EE0C
:104CF00093E00E940E1780918C01882309F475C0FF
:104D000080911202811171C010911402143109F4C2
:104D10006CC00E94941A60E0123011F485E010C05B
:104D200087E00E94A01E8DE10E94D11160E08AE020
:104D30000E94A01E809101010E94851F60E080E01A
:104D40000E94A01E8CE10E94D11161E080E00E94CF
:104D5000A01E8EE10E94D11161E085E00E94A01E9C
:104D600080918C010E94851F61E08AE00E94A01E54
:104D700080918C01813011F48FE105C0853010F4F1
:104D800080E201C081E20E94D11191E09093110272
:104D90009091800280916B03992361F0882369F0E0
:104DA000809110028F3F49F0A1E0A0937D02109204
:104DB000800201C081110E94AA1A809107018823F4
:104DC00009F44FC0B1E0B093060184E190E0A0E0A7
:104DD000B0E08093170490931804A0931904B09343
:104DE0001A0491E09093050136C00E94941A8091B4
:104DF0008202882341F080911202811104C08091C7
:104E00001402843131F461E083E00E94A01E85E049
:104E100005C061E081E00E94A01E86E00E94D111E1
:104E2000A1E0A093130283E00E94F816809107018D
:104E30008823B9F082E390E0A0E0B0E0809317040B
:104E400090931804A0931904B0931A0491E09093DE
:104E50009101109205019093900183E194E00E94EA
:104E60000E1710928C011092A701AFEFA0930301CF
:104E700028C180919301882361F0809112028111F1
:104E800003C00E94DE1F03C081E00E941710109231
:104E9000930100910301002E000C110BF801EB5659
:104EA000FE4F80810E94691680919401811109C191
:104EB00083E090E090938F0180938E01F090120236
:104EC000F11010C080918A0190918B0162E370E033
:104ED0000E945631CB01770FAA0BBB0B0097A1059F
:104EE000B10521F481E090E0A0E0B0E08093F70309
:104EF0009093F803A093F903B093FA0310928901F9
:104F00001092880183EF93E00E940E1761E08DE01C
:104F10000E949A1CF110D5C0F090140294E1F91689
:104F200009F412C780918C018F5F80938C0160E03F
:104F30008BE00E94A01EA1E0FA1619F0B6E0FB1269
:104F400003C08091010107C0E2E0FE1206C0F80133
:104F5000EE57FE4F80810E94851F61E082E00E9433
:104F6000A01E80910301082E000C990B01960E944F
:104F7000731F61E08BE00E94A01E84E00E94D111AB
:104F8000A0C083EF93E00E941A17882309F440C061
:104F900000918801109189010F5F1F4F10938901C3
:104FA000009388018091120220911402811126C081
:104FB000213021F0243111F0263051F4809101018B
:104FC00090E00817190724F0F1E0F09381020EC079
:104FD000223061F4E09103010E2E000CFF0BEE571E
:104FE000FE4F808190E00817190774F761E08CE0AC
:104FF0000E94A01EC8010E94731F0AC02B3041F4FA
:1050000008351B410CF034C480918704811130C4F1
:1050100080918102882309F454C060E08DE00E94F1
:105020009A1C80910301082E000C990BFC01EE0FD5
:10503000FF1FE556FE4F23E030E03183208340E040
:105040005FEF60E00E94D41D8DEC94E00E94971702
:105050008FEF8093030170928F0160928E018BEF2E
:1050600093E00E940E17109281022BC08BEF93E009
:105070000E941A17882329F110928F0110928E0135
:10508000809112028823B9F01092A7018091140236
:105090008B3021F482E00E9417100BC080919501A3
:1050A0000E946916809194018111F8CF91E090934C
:1050B00013021092120280911402843111F41092A2
:1050C000A701E0901402AFE0EA1651F080910601CA
:1050D000811106C080918E0190918F010397A1F5F7
:1050E0008BE094E00E941A17882371F180918E0161
:1050F00090918F01039709F0BFC3809197028F5F52
:10510000843008F4E9C3109297020091950210913F
:105110009602C8010E944217AB01682F80910301DB
:10512000082E000C990B0E94D41D8DEC94E00E9477
:1051300097170E531E4F0734B5E01B070CF4BEC380
:105140001092960210929502809192018823C1F1EB
:1051500010929402109194021530F8F4812F90E08F
:10516000FC01EE0FFF1FE556FE4F208131812330F9
:10517000310519F440E05FEF09C02130310511F429
:105180004FEF03C0232B29F440E050E060E00E9481
:10519000D41D1F5F10939402DDCF8BE094E00E943A
:1051A0000E1781E0809393021092920110920601F3
:1051B0001092940210929602109295021092970209
:1051C0008091060181110AC080919302882331F0F9
:1051D0008BE094E00E941A1781118FC38091910196
:1051E000882309F445C080919001811141C083E179
:1051F00094E00E941A178823D9F19091920280912D
:105200009102992309F480C390E0FC01EE0FFF1F87
:10521000E80FF91FED56FB4FAFEFA083118212820A
:1052200008969C01220F331F820F931FFC01ED563D
:10523000FB4F10821182A28383EC94E00E949717A7
:10524000809191028F5F883008F07AC38093910239
:10525000809190028F5F809390028B3548F010927E
:105260009101F1E0F093900183E194E00E940E1728
:105270002091140229832F3029F080910501882381
:1052800009F47DC080919001811179C083E194E09F
:105290000E941A1781115DC372C0833091050CF012
:1052A000F3C3009709F0D8C380E090E0A0E8BFE323
:1052B00080938B0290938C02A0938D02B0938E0208
:1052C00020928702309288024092890250928A028C
:1052D000109283021092840210928502109286022C
:1052E00020E030E04FE753E4609183027091840244
:1052F00080918502909186020E942E330E94713225
:10530000D62E20E030E04FE753E4609187027091A1
:1053100088028091890290918A020E942E330E9415
:105320007132C62EC801880F991F080F191F0D561C
:105330001B4F20E030E04FE753E460918B02709107
:105340008C0280918D0290918E020E942E330E94D9
:105350007132D8016C931196CC9211971296DC920F
:1053600084E08E0D8093900283EC94E00E94971766
:1053700081E08F0D803108F053C3809391028091BA
:10538000A7018823E9F1809107018823C9F1809161
:105390009001882339F083E194E00E941A1781116B
:1053A000FDC332C08091120281112EC0E981E43127
:1053B00059F183E194E00E941A17882329F1809122
:1053C00091028F5F873008F4E6C3109291028091BA
:1053D0008F028F5F853108F0ABC380938F0283EC1F
:1053E00094E00E94FF178091910290918F0280318A
:1053F00008F4A1C38093900283EC94E00E94971775
:10540000809190018111C7CF8091A501882309F473
:1054100075C01092A501ABE9B1E0EAE9F2E020E045
:1054200030E08D919D91019709F42F5F31933F5F9B
:105430003530B9F720939F02222309F45CC0E1E0E4
:10544000E0939A0180916B03882309F45CC08091FA
:105450000701882381F0E093060184E190E0A0E059
:10546000B0E08093170490931804A0931904B093AC
:105470001A04E093050180918002882369F091E08D
:1054800090937D02109280020E94AA1A64E670E056
:1054900080E090E00E94051D80916B030E949A1AA3
:1054A00064E670E080E090E00E94051D82E1809358
:1054B00028041092290410922A048FE080932B0470
:1054C0000E94BB1D0E94511D0E94941A60E082E060
:1054D0000E94A01E8BE40E94D11161E082E00E9434
:1054E000A01E8CE40E94D11164EF71E080E090E096
:1054F0000E94051D03C0A1E0A093A70180919A011D
:10550000882309F486C08091990281110CC0809192
:1055100099010E9469168091940181110EC0B1E039
:10552000B09399020AC0809195010E9469168091FA
:105530009401811102C0109299028CE00E94711CAA
:10554000892B29F480918002882309F462C010928B
:10555000940110929902F1E0F093A701F093930166
:105560001092080110929F020E945F180E94CD3095
:105570000FE912E095EAE92E91E0F92E25E0822E5E
:10558000912CA12CB12C0E947F30F801D2908F0178
:10559000A50194010E94F330FB01E656FD4F808186
:1055A000D8018C93D082F701929182917F0101976B
:1055B00029F480919F028F5F80939F02F1E08F1A00
:1055C0009108A108B108F9F640919F025091040199
:1055D000EAE9F2E091E080E0A081AA0FBB0BA556BA
:1055E000BE4F2D913C912130310511F02FEF2083DA
:1055F00021E0280F423008F0E6C2822F3196253094
:1056000059F710929A011092980280910701811126
:10561000E7C28091A801882369F18091A7018111D7
:1056200029C080911102882329F08091A002811164
:1056300048C025C08091A601811171C08BEE93E016
:105640000E941A17882309F46AC080E10E94F816A4
:1056500010924D0460E081E494E00E94150E21E078
:105660002093A6018DEC94E00E94FF178DEC94E04E
:105670000E949717809111028111D7CF50C083EEFD
:1056800093E00E941A17882359F180916B038823B5
:1056900029F0909110029F3F09F0CAC2A1E0A093A7
:1056A000A00284EF91E0A0E0B0E08093E703909344
:1056B000E803A093E903B093EA0383EE93E00E942A
:1056C0000E1783EE93E00E941A17882329F08CE0CE
:1056D0000E94711C892B61F48091A901811108C07D
:1056E00080916B03882321F0809110028F3FB9F4E1
:1056F000109211028091A901882321F01092A90132
:105700000E94AA1A8BEE93E00E940E171092A0023C
:10571000809114028F3109F0D3C20E941D1B809129
:1057200013028823B1F083EE93E00E941A178823B6
:1057300081F080911402813019F0863009F0D1C2D5
:105740000E94EE1F1092130210921202F1E0F093E9
:105750000801809180028823D9F180917F02811114
:1057600037C08BED93E00E941A17882389F180914E
:105770007E028823A9F08BED93E00E940E17109211
:105780007E0210927F0280917B0280930A0190E05A
:105790002091790230917A0282179307FCF045C07C
:1057A0008CE00E94711C892B09F456C080917D0207
:1057B000882331F010927D0280917C020E949A1A17
:1057C00021E020937E0280917B028F5F80937B0299
:1057D00080917E02882309F43FC0CDCFFC01EB5EAF
:1057E000FD4F80818F5F909109012FE02093280465
:1057F0001092290490932A0480932B040E94BB1DCD
:105800000E94511D9091800280911402911107C055
:1058100091E0909380028330F9F480E003C08330FC
:10582000D9F484E00E94A61017C010928002109252
:105830007B020E94AA1A64E670E080E090E00E9479
:10584000051D80911402833019F480E00E94A61097
:1058500080916B030E949A1A80E090E0892B09F4F2
:10586000D1C80E940000CEC882E10E94F81607CA83
:10587000A1E0A0938102CCCB0091950210919602F9
:10588000C8010E944217AB01682FF09094028F2D3F
:1058900090E00E94D41D8DEC94E00E94971781E067
:1058A0008F0D853018F4809394024ECC10929402A0
:1058B0000E531E4F0734E5E01E072CF4109396029A
:1058C0000093950241CC109296021092950280911D
:1058D00097028F5F863019F08093970235CC109233
:1058E0009702FFE0EF1609F42FCC80919A01811105
:1058F0002BCC21E02093920127CC109293028DECC7
:1059000094E00E9497176ACC90E09C01285F3F4F7B
:10591000A901440F551F240F351FF901ED56FB4F08
:10592000BFEFB083118212829C01220F331F820FBE
:10593000931FFC01ED56FB4F10821182B2837CCC89
:105940001092910280919202E1E08E278093920260
:105950007FCCF09091020F2D10E0E09090026E2D20
:10596000BFE0FB9E600D112470E080E090E00E949B
:10597000A03220E030E04FE753E40E94F83120E00D
:1059800030E040EC50E40E942E334B015C010E9459
:105990006A326B01072E000C880B990B0E94A23211
:1059A0009B01AC01C501B4010E948B319B01AC018C
:1059B00060E070E080E89FE30E948B314B015C0166
:1059C0009B01AC0160E070E080E89FE30E948B31B6
:1059D0001B012C01C60166E070E00E945631823046
:1059E000910509F05ACC10928B0210928C02109201
:1059F0008D0210928E0280E090E0A0E8BFE38093D9
:105A0000870290938802A0938902B0938A02209221
:105A1000830230928402409285025092860260CCCA
:105A20001092910280919A018111A9CCB981BF3065
:105A300009F4A5CC80918F028F5F80938F028A3109
:105A400008F49DCC10920501E1E0E093900183E120
:105A500094E00E940E1793CC019709F041CC8092FC
:105A60008B0290928C02A0928D02B0928E0280E006
:105A700090E0A0E8BFE38093870290938802A09310
:105A80008902B0938A0224CC84309105E9F42092F3
:105A90008B0230928C0240928D0250928E021092B4
:105AA0008702109288021092890210928A0280E086
:105AB00090E0A0E8BFE38093830290938402A093D8
:105AC0008502B09386020CCC843091058CF4109240
:105AD0008B0210928C0210928D0210928E02809294
